{
  "contractName": "TokenTransfer",
  "abi": [
    {
      "constant": true,
      "inputs": [],
      "name": "initialSupply",
      "outputs": [
        {
          "name": "",
          "type": "uint256"
        }
      ],
      "payable": false,
      "stateMutability": "view",
      "type": "function"
    },
    {
      "constant": true,
      "inputs": [
        {
          "name": "",
          "type": "address"
        }
      ],
      "name": "balanceOf",
      "outputs": [
        {
          "name": "",
          "type": "uint256"
        }
      ],
      "payable": false,
      "stateMutability": "view",
      "type": "function"
    },
    {
      "constant": true,
      "inputs": [],
      "name": "tokenTransfered",
      "outputs": [
        {
          "name": "",
          "type": "uint256"
        }
      ],
      "payable": false,
      "stateMutability": "view",
      "type": "function"
    },
    {
      "inputs": [
        {
          "name": "_initialSupply",
          "type": "uint256"
        }
      ],
      "payable": false,
      "stateMutability": "nonpayable",
      "type": "constructor"
    },
    {
      "anonymous": false,
      "inputs": [
        {
          "indexed": false,
          "name": "from",
          "type": "address"
        },
        {
          "indexed": false,
          "name": "to",
          "type": "address"
        },
        {
          "indexed": false,
          "name": "amount",
          "type": "uint256"
        }
      ],
      "name": "Transfer",
      "type": "event"
    },
    {
      "constant": false,
      "inputs": [
        {
          "name": "_to",
          "type": "address"
        },
        {
          "name": "_amount",
          "type": "uint256"
        }
      ],
      "name": "transfer",
      "outputs": [
        {
          "name": "",
          "type": "bool"
        }
      ],
      "payable": false,
      "stateMutability": "nonpayable",
      "type": "function"
    }
  ],
  "bytecode": "0x608060405234801561001057600080fd5b506040516020806103d88339810180604052602081101561003057600080fd5b810190808051906020019092919050505080600260003373ffffffffffffffffffffffffffffffffffffffff1673ffffffffffffffffffffffffffffffffffffffff16815260200190815260200160002081905550806000819055505061033c8061009c6000396000f3fe608060405234801561001057600080fd5b506004361061004c5760003560e01c8063378dc3dc1461005157806370a082311461006f578063a9059cbb146100c7578063d1a2cef81461012d575b600080fd5b61005961014b565b6040518082815260200191505060405180910390f35b6100b16004803603602081101561008557600080fd5b81019080803573ffffffffffffffffffffffffffffffffffffffff169060200190929190505050610151565b6040518082815260200191505060405180910390f35b610113600480360360408110156100dd57600080fd5b81019080803573ffffffffffffffffffffffffffffffffffffffff16906020019092919080359060200190929190505050610169565b604051808215151515815260200191505060405180910390f35b61013561030a565b6040518082815260200191505060405180910390f35b60005481565b60026020528060005260406000206000915090505481565b600081600260003373ffffffffffffffffffffffffffffffffffffffff1673ffffffffffffffffffffffffffffffffffffffff1681526020019081526020016000205410156101b757600080fd5b81600260003373ffffffffffffffffffffffffffffffffffffffff1673ffffffffffffffffffffffffffffffffffffffff1681526020019081526020016000206000828254039250508190555081600260008573ffffffffffffffffffffffffffffffffffffffff1673ffffffffffffffffffffffffffffffffffffffff16815260200190815260200160002060008282540192505081905550816001600082825401925050819055507fddf252ad1be2c89b69c2b068fc378daa952ba7f163c4a11628f55a4df523b3ef338484604051808473ffffffffffffffffffffffffffffffffffffffff1673ffffffffffffffffffffffffffffffffffffffff1681526020018373ffffffffffffffffffffffffffffffffffffffff1673ffffffffffffffffffffffffffffffffffffffff168152602001828152602001935050505060405180910390a16001905092915050565b6001548156fea165627a7a72305820060ab9ee16bc04308940c6b2477fa85868cb71f25c290079d95add0db738c5df0029",
  "source": "pragma solidity ^0.5.0;\r\n\r\ncontract TokenTransfer {\r\nuint public initialSupply;\r\nuint public tokenTransfered;\r\nmapping(address => uint) public balanceOf;\r\n\r\nconstructor(uint _initialSupply) public {\r\nbalanceOf[msg.sender] = _initialSupply;\r\ninitialSupply = _initialSupply;\r\n}\r\n\r\nevent Transfer (\r\n    address from,\r\n    address to,\r\n    uint amount\r\n);\r\n\r\n\r\n\r\nfunction transfer(address _to, uint _amount) public returns (bool){\r\nrequire(balanceOf[msg.sender] >= _amount);\r\nbalanceOf[msg.sender] -= _amount;\r\nbalanceOf[_to] += _amount;\r\ntokenTransfered += _amount;\r\nemit Transfer(msg.sender, _to, _amount);\r\nreturn true;\r\n}\r\n}",
  "sourcePath": "C:/Personal/Token Transfer Dapp/contracts/TokenTransfer.sol",
  "compiler": {
    "name": "solc",
    "version": "0.5.8+commit.23d335f2.Emscripten.clang"
  },
  "schemaVersion": "3.0.10",
  "updatedAt": "2019-06-30T16:29:23.104Z",
  "devdoc": {
    "methods": {}
  },
  "userdoc": {
    "methods": {}
  }
}